:020000041000EA
:1000000000B5324B212058609868022188439860DF
:10001000D860186158612E4B002199600221596106
:100020000121F02299502B49196001219960352056
:1000300000F044F80222904214D00621196600F024
:1000400034F8196E01211966002018661A6600F04E
:100050002CF8196E196E196E052000F02FF8012189
:100060000842F9D1002199601B49196000215960AB
:100070001A491B48016001219960EB211966A021F2
:10008000196600F012F800219960164914480160C1
:100090000121996001BC002800D000471248134993
:1000A000086003C880F30888084703B5996A0420EC
:1000B0000142FBD001200142F8D103BD02B5186610
:1000C0001866FFF7F2FF186E186E02BD00000240BE
:1000D000000000180000070000035F00212200005C
:1000E000F4000018222000A00001001008ED00E03C
:1000F00000000000000000000000000074B24E7A12
:1001000000200420F7010010C3010010C5010010F9
:10011000C1010010C1010010C1010010C101001097
:10012000C1010010C1010010C1010010C701001081
:10013000C1010010C1010010C9010010CB01001065
:10014000CD010010CD010010CD010010CD01001037
:10015000CD010010CD010010CD010010CD01001027
:10016000CD010010CD010010CD010010CD01001017
:10017000CD010010CD010010CD010010CD01001007
:10018000CD010010CD010010CD010010CD010010F7
:10019000CD010010CD010010CD010010CD010010E7
:1001A000CD010010CD010010CD010010CD010010D7
:1001B000CD010010CD010010CD010010CD010010C7
:1001C00000BE00BE00BE00BE00BE00BEEFF3058054
:1001D000103800BEF2EB8871780306109803061001
:1001E0003402001090A31AE700201F49086006C8D7
:1001F00081F3088810471D48006800282FD10DA4FE
:100200000ECC002902D000F012F8F9E71849194A7B
:10021000002000E001C19142FCD1174988471749ED
:1002200088471749884700BEFDE701C901C29A42C5
:10023000FBD3704798030610C0000020EC3100206B
:10024000C43406100000042000000420C43406104A
:10025000001004200010042000000000704709482E
:1002600004F02AFD0047000008ED00E0000000D087
:10027000F0310020D45B0020FD4D00108D030010F4
:10028000314F00105756000006005250ABB3605378
:10029000A82E051006005250861C0302B02E051031
:1002A000060052505422A29DB82E0510050052504F
:1002B000DE65F468C4340610F8B5C04610B5064CC7
:1002C0002378002B07D1054B002B02D0044800E017
:1002D00000BF0123237010BDD836002000000000AD
:1002E00038220510044B10B5002B03D003490448F5
:1002F00000E000BF10BDC04600000000DC3600205A
:1003000038220510F8B545200AF0DAFD0AF0E2FDC2
:10031000452818D00E4800F031FB0E4C0E4F0F4D03
:100320000F4E200001F00EFA0028FAD0380000F03D
:1003300025FB280051F068FF300000F0E1FF2800A5
:1003400051F08AFEEDE7074800F018FBE5E7C046EC
:1003500038220510083300207C220510C838002000
:10036000D03800206022051070B5040010200D0068
:10037000160008F085F93268736829008260C3604E
:1003800012F03CFCA3680133A36070BDF0B5DE46FB
:100390004E4645465746E0B583B008F043FCEF486B
:1003A00000F0ECFAEE4800F0E9FAEE4800F0E6FA68
:1003B000ED4C0027200003F06FFBEC4BEC4E1800D7
:1003C000984603F069FBEB4D280000F0D7FAEA48A5
:1003D00000F0D4FA192003F06FF8D0231B069946D9
:1003E00080234A46E5499B045362080093616A46AC
:1003F00000960197FFF7B8FFE0496A4608000096AB
:100400000197FFF7B1FFDD496A46080000960197A2
:10041000FFF7AAFF280000F0B1FAD94800F0AEFAC1
:10042000022003F049F804234A462800536253612E
:1004300000F0A4FAD34800F0A1FA04F001FC28006F
:1004400000F09CFAD04800F099FAD04E02F01AF869
:10045000280000F093FACE4800F090FACD49300021
:1004600002F0ACFDCB49CC4802F0A8FD162003F009
:1004700023F880234A46DB0353621120536103F0C3
:100480001BF880234A469B025362536187233268DC
:1004900001215340CF221A4080235B0133431A606D
:1004A000102002F0B5FF0121122002F0B1FF01215E
:1004B000132002F0ADFF01210C2002F0A9FF012161
:1004C0000E2002F0A5FF01210F2002F0A1FF28005D
:1004D00000F054FAB14800F051FAB149B14804F0C3
:1004E000C7FAAF49B04804F0C3FA0321142002F060
:1004F0008FFF0321152002F08BFF0321062002F05D
:1005000087FF0321072002F083FF0022012114202E
:1005100002F096FF00220121152002F091FF002237
:100520000121062002F08CFF01210022072002F0A9
:1005300087FF280000F022FA9C4800F01FFA01F023
:1005400027FB280000F01AFA994800F017FA01F08A
:10055000B1FE280000F012FA964800F00FFA00F001
:1005600065FC280000F00AFA934800F007FA00F052
:100570004FFF280000F002FA904800F0FFF901F068
:1005800091FF280000F0FAF9FA20C00003F0F0FD16
:100590008B4800F0F3F902F0EFF9280000F0EEF9D3
:1005A000884800F0EBF90222874B28001A6000F01F
:1005B000E5F9864800F0E2F9FA200021C00002F0D7
:1005C000CDFB280000F0DAF9814800F0D7F9814826
:1005D0000AF0D0FC0AF07EFC452800D159E17E48A3
:1005E00000F0CCF97D4B7E4E9A467E4B7E4D99466F
:1005F0007E4B9B4602F0A8FB200051F005FE200038
:10060000F76951F029FDFA23DB009F4200DA25E16A
:10061000774801F097F8002800D00BE1754801F009
:1006200091F8002800D0FBE0734801F08BF8002817
:1006300000D088E0714801F085F8002879D1704831
:1006400001F080F800286AD1504601F07BF80028BC
:1006500055D1484601F076F8002840D1584601F0BF
:1006600071F80028C6D0404651F0CEFD80232A689C
:10067000DB015340E022D2011340624A136004229E
:10068000514B1A60FC322B681342FCD040466F6815
:1006900051F0E2FC200051F0B7FD3804000C07F0E7
:1006A000ADFE594907F047FEE621890507F043FEF4
:1006B00007F0FEFE554A564B06F009FA554A564BCE
:1006C00006F017FA02000B000020544906F0FFF96B
:1006D00006F032FB3064200051F0BEFC8AE72000B7
:1006E00051F092FD300002F0D7F9200051F0B4FC37
:1006F000584601F027F8002800D17BE7B3E7200037
:1007000051F082FD404651F07FFD300001F0DAFEED
:10071000200051F0A1FC404651F09EFC99E72000DA
:1007200051F072FD300000F071FF200051F094FC98
:100730008AE7200051F068FD300001F08FFE2000B4
:1007400051F08AFC7BE7200051F05EFD300001F0A3
:10075000C3FD200051F080FC6CE7C04694220510D8
:10076000BC220510DC220510C83800207C3900208E
:1007700050C30000F0220510F8220510B832002006
:10078000082305101C2305102C23051000C003406E
:100790004423051020A10700000004406423051035
:1007A000801A06007C260020842600208423051061
:1007B00098230510A8230510B8230510CC23051095
:1007C000E0230510F023051000E00440102405107C
:1007D0002424051005030010402405105833002080
:1007E000D03800204032002000C004408033002078
:1007F000F0310020683200209032002018320020B2
:10080000A833002000D0044033335340643BDF4F13
:100810008D97E63F7FC2D9AD65325C3F00003B401B
:10082000200051F0F1FC300001F018FA200051F0E6
:1008300013FCF9E6200051F0E7FC8823F75C200068
:1008400051F00AFC042F00D0E8E6D0220121120664
:1008500053689B08194218D15761DFE6104800F031
:1008600071FF002800D1D3E6D0220121120653687F
:100870005B0E194203D180239B045361C8E6802399
:10088000D0229B0412069361C2E6D0231B069F610F
:10089000C4E645200AF014FB024800F06FF8A1E618
:1008A000B8320020682405100022A421F8B5FA24EB
:1008B0000025234BA4005A5004315A5021480023EC
:1008C000214A00F0EFFE2B002200204800F0EAFE53
:1008D000FA22FA260027002352001D4800F0E2FE0B
:1008E0000A2200231B4800F0DDFE00231A4A1B48A1
:1008F00000F0D8FE2B002200194800F0D3FE0122A0
:100900000023184800F0CEFEF6002B002200164807
:1009100000F0C8FE32003B00144800F0C3FE2B007C
:100920002200134800F0BEFE2B002200114800F008
:10093000B9FE32003B00104800F0B4FEF8BDC046DE
:10094000D0380020B8320020B80B0000F031002071
:10095000683200209032002060EA00001832002047
:10096000E0320020303300208033002008330020A4
:10097000A8330020583300204032002010B508F082
:1009800045F910BD70B586B001AA1100044B70CBBB
:1009900070C11C680C601B790B71105C06B070BDD7
:1009A0008C800510F0B557464E46DE464546E0B50C
:1009B000B94B83B099461B788A46071C01AC802B43
:1009C0001ED0B64B2380C046C046C046D0258026E8
:1009D0002D06B601AE61C046C046C04602222100C7
:1009E000AF4851F0B1FBC046C046C0466E61C0463C
:1009F000C046C046012003F0BBFB80234A4613706B
:100A0000A64B2380C046C046C046D02580232D0675
:100A10009B019846AB61C046C046C04602222100F9
:100A20009F4851F091FBC046C046C04643466B61AB
:100A3000C046C046C046012003F09AFB381C07F0B0
:100A400037FD06000F0002000B00964808F0DEF8A4
:100A5000002230003900944B06F069F80022934BD5
:100A600006F047F806F018F986232370030C0600F9
:100A70006370C046C046C0464346AB61C046C046F0
:100A8000C04602222100864851F05EFBC046C046A7
:100A9000C04643466B61C046C046C046012003F0D5
:100AA00067FB87232370330A6370C046C046C04685
:100AB0004346AB61C046C046C0460222210078488A
:100AC00051F042FBC046C046C04643466B61C0463B
:100AD000C046C046012003F04BFB8823667023709C
:100AE000C046C046C0464346AB61C046C046C0464D
:100AF000022221006A4851F027FBC046C046C0468A
:100B000043466B61C046C046C046012003F030FB3F
:100B10005346052B00D16AE1022B00D15DE1012B88
:100B200000D16EE10022624BB0271A600C23984678
:100B3000A8339B46383200239A469D236270237067
:100B4000C046C046C046D02580262D06B601AE61FF
:100B5000C046C046C04602222100514851F0F4FA76
:100B6000C046C046C0466E61C046C046C046012071
:100B700003F0FEFA9E2323705B466370C046C046B6
:100B8000C046AE61C046C046C0460222210044486D
:100B900051F0DAFAC046C046C0466E61C046C04653
:100BA000C046012003F0E4FAA62323704346637095
:100BB000C046C046C046AE61C046C046C0460222DE
:100BC0002100374851F0C0FAC046C046C0466E61A9
:100BD000C046C046C046012003F0CAFA6B46D91C85
:100BE00031230B70C046C046C046AE61C046C04609
:100BF000C04601222A4851F0A7FA012003F0B8FAB2
:100C0000012322000021264851F01EFAC046C046AA
:100C1000C0466E61C046C046C046012003F0A8FA37
:100C200007222378603F93437A4257410222B12141
:100C30007F4290463A400332134321706370C046AE
:100C4000C046C046AE61C046C046C0460222210032
:100C5000134851F079FAC046C046C0466E61C0469E
:100C6000C046C046012003F083FA43461F400A37BE
:100C7000B53323706770C046C046C046AE61C046FB
:100C8000C046C04602222100054851F05DFAC04628
:100C9000C046C0466E610DE01C2300208180FFFF2E
:100CA000000004408424051000205B4100207B40AC
:100CB000BC380020C046C046C046012003F058FAA8
:100CC000A223237053466370C046C046C046AE613F
:100CD000C046C046C04602222100504851F034FAB6
:100CE000C046C046C0466E61C046C046C0460120F0
:100CF00003F03EFA9323237053466370C046C04608
:100D0000C046AE61C046C046C046022221004348EC
:100D100051F01AFAC046C046C0466E61C046C04691
:100D2000C046012003F024FA3D4B2380C046C04654
:100D3000C046AE61C046C046C046022221003748C8
:100D400051F002FAC046C046C0466E61C046C04679
:100D5000C046012003F00CFAC1232380C046C046E0
:100D6000C046AE61C046C046C046022221002B48A4
:100D700051F0EAF9C046C046C0466E61C046C04662
:100D8000C046012003F0F4F94B461B78812B1DD09F
:100D9000244B2380C046C046C046AE61C046C04614
:100DA000C046022221001D4851F0CEF9C046C0467F
:100DB000C0466E61C046C046C046012003F0D8F967
:100DC00081234A460120137003F0D2F903B0F0BC2E
:100DD000BB46B246A946A046F0BD0022124B802772
:100DE0001A600423984680339B466832A3E60022AB
:100DF0000D4BB0271A6004239846B0339B465832F7
:100E000099E65246084B60271A60FF239A46FB3B3F
:100E1000984660339B4633228FE6C046000004406C
:100E2000C04000008181FFFFBC38002010B50121C7
:100E30000C2002F0EDFA0D2002F03EFB01210E2005
:100E400002F0E6FA01210F2002F0E2FAD02380221C
:100E50001B0692015A625A61802212019A62012194
:100E60000548FFF79FFD054A054B116819609188F9
:100E7000998092799A7110BD8135D943AC240510BF
:100E8000843A0020F0B54746CE4680B5894F83B0FE
:100E90003B788146884601AC812B20D0864B23804D
:100EA000C046C046C046D02580262D06B601AE619C
:100EB000C046C046C04602222100804851F044F995
:100EC000C046C046C0466E61C046C046C04601200E
:100ED00003F04EF9812301203B7003F049F9784B70
:100EE0002380C046C046C046D02580262D06B601C8
:100EF000AE61C046C046C046022221006F4851F094
:100F000023F9C046C046C0466E61C046C046C046D2
:100F1000012003F02DF98E232380C046C046C04631
:100F2000AE61C046C046C04602222100634851F06F
:100F30000BF9C046C046C0466E61C046C046C046BA
:100F4000012003F015F98D232380C046C046C0461A
:100F5000AE61C046C046C04602222100574851F04B
:100F6000F3F8C046C046C0466E61C046C046C046A3
:100F7000012003F0FDF8534B1B68002B00D17DE0EE
:100F8000C046C046C046D02580262D06B601AE61BB
:100F9000C046C046C04680236A461370C046C0465D
:100FA000C046AE61C046C046C046012269464348BD
:100FB00051F0CAF842464946404851F0C5F8C0468B
:100FC000C046C0466E61C046C046C0463B78832BD3
:100FD0004CD08C232380C046C046C046AE61C0467C
:100FE000C046C04602222100344851F0ADF8C04648
:100FF000C046C0466E61C046C046C046012003F0F0
:10100000B7F8314B2380C046C046C046AE61C046EB
:10101000C046C04602222100284851F095F8C0463B
:10102000C046C0466E61C046C046C046012003F0BF
:101030009FF8264B2380C046C046C046AE61C046DE
:10104000C046C046022221001C4851F07DF8C0462F
:10105000C046C0466E61C046C046C046012003F08F
:1010600087F8832301203B7003F082F80222184B9B
:101070001A7003B0C0BCB946B046F0BDA2332370AD
:1010800043466370C046C046C046AE61C046C046D7
:10109000C04602222100094851F056F8C046C04619
:1010A000C0466E61C046C046C046012003F060F8ED
:1010B00066E7C0461C2300208181FFFF000004403A
:1010C000C0400000BC3800208988FFFF8183FFFFFB
:1010D000C25B0020F0B5DE4657464E464546844B7F
:1010E000E0B517001A68AFB0561C04001E60006F10
:1010F0000D0007F0DDF92C902D91E06E07F0D8F986
:101100002A902B91A06E07F0D3F928902991606E58
:1011100007F0CEF926902791206E07F0C9F92490A8
:101120002591E06F07F0C4F922902391A06F07F09A
:10113000BFF920902191606F07F0BAF91E901F91BE
:10114000606D07F0B5F91C901D91206D07F0B0F9A6
:10115000A8231A901B91E3581893E06D07F0A8F9A3
:1011600016901791A06D07F0A3F914901591E06CFB
:1011700007F09EF912901391A06C07F099F9109066
:101180001191606C07F094F90E900F91206C07F0AC
:101190008FF90C900D91E06B07F08AF90A900B9192
:1011A000E36A0993E3690893606907F081F906909F
:1011B0000791A06907F07CF90490059123693A0032
:1011C0000293E3684B490193A3682800009333001E
:1011D00005F0A8F9280045F017FC8346022800D83E
:1011E0007DE080222E18444C4448A91C120219E0CC
:1011F0005B0013421FD15B00134220D15B001342FE
:1012000021D15B00134222D15B00134223D15B004A
:10121000134224D15B005C00134200D044400131F2
:101220008E421FD00B781B0263401342E0D05B005C
:1012300043401342DFD05B0043401342DED05B00EB
:1012400043401342DDD05B0043401342DCD05B00DF
:1012500043401342DBD05B0043401342DAD05B00D3
:101260004340D8E70F27220A3A40904622093A40E5
:101270009146200B384027405A462A23AB545B4600
:1012800001339A46AA44FFF77DFB534618705B462C
:1012900002339A464046AA44FFF774FB534618703F
:1012A0005B46033398464846A844FFF76BFB43462A
:1012B00018705B4638001C1DFFF764FB0A232C19CD
:1012C0002070737100232800B37145F09DFB01303D
:1012D0002FB0F0BCBB46B246A946A046F0BD0F23D6
:1012E000994698465B460F270F20EE18C4E7C04684
:1012F0004C500020B4240510FFFF00002110000016
:10130000F0B5344C0500237887B0022B20D1D026CD
:10131000360673681B0555D52F4B01A90B80C046B7
:10132000C046C0468027BF01B761C046C046C04620
:1013300002222A4850F008FFC046C046C0467761E6
:10134000C046C046C046012002F012FF00232370B1
:101350000024234B234A1C70136801332FD4224EE0
:10136000280031001460214AFFF7B4FEFA25070077
:101370001F4807F04BFC31001E4807F047FC1E4A8F
:101380006D00136801331360AB421FDD1B4B14600B
:101390001A6801321A601A4901A805F0C3F8194801
:1013A000FFF7ECFA01A9300000F0FAF91648FFF750
:1013B000E5FA002239003000FFF764FD00E0136019
:1013C00007B0F0BD1148FFF7D9FAF9E70B4B1A68DF
:1013D000E1E7C046C25B0020920800000000044024
:1013E000C15B0020A43A002084390020843A002008
:1013F0003825051040250510C4380020C0380020CD
:101400004425051054250510F022051098240510D8
:1014100010B5092002F050F8D02380221B0692005C
:101420005A629A6110BDC046F0B54E46DE46574638
:1014300045468946E0B587B0041C05900021484622
:1014400006F0A8FF002806D00021201C06F0A2FF0D
:10145000002800D0CBE0674B674E984600230493EA
:1014600002339B46B246654F654D664C0395029725
:10147000211C301C06F096FF0194002800D1019633
:101480005146484606F08EFF002859D1484601993A
:1014900006F09EFF002853D14846211C06F07AFF33
:1014A000002805D00598291C06F07CFF00287FD174
:1014B0004946301C06F06EFF002805D00598391CFF
:1014C00006F070FF00287AD1059B0299181C9A46F5
:1014D00006F07EFF002833D15046039906F062FFE4
:1014E00000282AD1391C281C06F054FF00286DD191
:1014F000211C301C06F04EFF002821D1211C48463B
:1015000006F0FFFE211C8246301C06F0FAFE291C64
:10151000041C381C06F0F5FE011C201C06F0F7FE2A
:10152000011C504606F0F3FE291C06F0EDFE011CDE
:10153000059806F03DFF002802D0049B0133049378
:101540005B46222B49D04346212158461D685C68E2
:1015500005F05AF8CB0019002B4A04319F588E58D9
:10156000281C391C06F01EFF0395002800D10397A4
:1015700001239C460733E3449C46391C281CE04465
:1015800006F026FF0295002800D10297311C201C8E
:1015900006F008FFA246002800D069E7211C301C95
:1015A00006F000FFB2460194002800D068E766E725
:1015B0004946301C06F0F6FE431E9841BBE74846FC
:1015C000211C06F005FF431E9841B4E75046291C34
:1015D00006F0EEFE0028B0D1B2E70120049B1840CF
:1015E00007B0F0BCBB46B246A946A046F0BD0120FC
:1015F000F6E7C0460026051072C74B4200809DBD2D
:10160000896083BFC9D84B42F8250510A82370B55F
:10161000C5580400002D23D1C6691B4B9E420CDC2B
:1016200081692123194A4069FFF7FEFE002804D092
:10163000174B1D60174B1E6070BD154A13680133B0
:101640001360052BF6DD1448FFF798F9D0238022AC
:101650001B0692005A61A8230122E669E250E9E7DD
:101660000C4BC2691B689B1A0A2B08DD0B48FFF75D
:1016700085F9D02380221B0692009A61DCE7084896
:10168000FFF77CF9D8E7C0469B630000F8250510FA
:10169000845B0020AC560020D42505107825051069
:1016A00094250510F0B5CE464746914680B50122F7
:1016B00000279846202385B001AE40600060876017
:1016C000C7600500C254102076600196B76006F02E
:1016D000D7FFFA220400002392004846414606F054
:1016E000F3FDA060E1603100200011F087FAB368DB
:1016F00001990133B360B14213D03200280011F0D8
:101700006FFAB268AB689446019C6344AB60B76003
:10171000B44206D020002468102106F0C1FFB44274
:10172000F8D12B68EB6002F0E3FD2861696102F0FB
:10173000DFFDA861E961280005B0C0BCB946B0462C
:10174000F0BDC046202370B5C55C0400002D02D159
:101750000025280070BD02F0CBFD02000B00A0693F
:10176000E169801A9941226163610029F0DAE16838
:10177000606881420AD00968E1608868C968121807
:101780004B41002B05DBA261E361E2E72168E160E8
:10179000F3E70122014B5242F5E7C046FFFFFF7F0E
:1017A000F0B5324C07000E00A544C046C046C04606
:1017B000D02380221B0692029A61C046C046C046D2
:1017C000002000F067F804000122216838300EF094
:1017D000A5F8051E30D13222310068460EF07EF9A0
:1017E000F7230500184208D010F02EFF2B0002004E
:1017F00031001F4807F00AFA1AE0390068460FF076
:10180000EFF9002828DB68460FF0AEF9051E1BD162
:101810000022216800200EF081F8C046C046C04674
:10182000D02380221B06D2035A61C046C046C04660
:1018300099239B009D44F0BD10F006FF2A00010093
:101840000C4807F0E3F9F3E710F0FEFE2A00010070
:10185000094807F0DBF9DBE7084807F083F868463A
:101860000FF082F9051ED3D0EEE7C0469CFDFFFFC6
:1018700018270510002705104427051034270510E8
:1018800010B5024850F050FC10BDC0462023002087
:10189000012070470300012807D88000C018030109
:1018A000C018034BC000C01870470020FCE7C046BA
:1018B0006023002001207047012803D8024B8001DB
:1018C000181870470020FCE7202300202E4A2F4BD9
:1018D00094461B682E495B1063449A10524370B5BE
:1018E00000240C5F511361432A4CC9100025645F2A
:1018F0005C436410091980242402A446264C8914F0
:10190000248861446143C9133CD0244CD212002581
:10191000645F6243224C0025645F63435B009B1855
:10192000204A9B100024125F1204D21812131218BE
:1019300053019B1A980080188300C0188300C018B8
:10194000194B4042C01819D4400004F085FE010034
:10195000CB085B43580B154B00229B5E8A08434320
:1019600013481B130024005F504340131818114BF9
:1019700000229B5EC0180011401870BD04F06CFE80
:101980004100E5E70020F8E70006FFFF705B00205C
:10199000AC5B0020AA5B0020A85B0020B25B0020AB
:1019A000B05B0020AE5B0020000050C3B85B00209D
:1019B000B65B0020B45B0020214B80031A68214BEA
:1019C0009C46214B624400215B5E20491B05C31AE3
:1019D0000020085E5043181A8023DB019C461C4BF4
:1019E0006044C113187880231B029C46194B504356
:1019F0001B78C0125BB25A4380239B0360449C4611
:101A000092125043144B801200229B5E6044584354
:101A100080239B019C46604480134843C3135B436F
:101A20000E4ADB11127853431B11C01AC343DB1754
:101A30001840C8235B05984200DD1800001370476A
:101A4000705B002000D4FEFFA45B0020A65B00209A
:101A5000C95B0020CA5B0020A25B0020C85B00209D
:101A6000F0B5C64600B58AB06A468823D3720B2209
:101A70000027334E334D873B03AC31786A440093E3
:101A80002800984603F01EF8317822001823280019
:101A9000009703F07FF822882B4B28001A80628879
:101AA0002A4B1A80A2882A4B1A80E288294B1A8076
:101AB0002289294B1A806289284B1A80A289284BD7
:101AC0001A80E289274B1A80228A274B1A80628A61
:101AD000264B1A80A28A264B1A80E28A254B31783F
:101AE0001A80627E244B1A706A46E123D372434601
:101AF0000B2200936A4402F0E5FF317822000823AC
:101B00002800009703F046F822881C4B1A80A27820
:101B10001B4B1A700F23E278217912010B401343FB
:101B2000184A13806379A2791B0912011343164ADC
:101B30001380E279154B1A700AB080BCB846F0BD2C
:101B4000B03800207C260020BA5B0020BC5B00205F
:101B5000BE5B0020A85B0020AA5B0020AC5B0020DD
:101B6000AE5B0020B05B0020B25B0020B45B0020C5
:101B7000B65B0020B85B0020C85B0020A25B0020A1
:101B8000C95B0020A45B0020A65B0020CA5B00208C
:101B9000F0B50A22762700262B4C2C4D85B0276005
:101BA00001237621280000966A4402F0F3FF002802
:101BB00021DD2168002902DC012005B0F0BDD02321
:101BC0006A460B2700261373CF3BC9B2009303AAC2
:101BD0006F44280002F076FF012321783A002800A4
:101BE000009602F0D7FF3B78602B14D0184806F01F
:101BF000B9FE2660E0E70A2227600123762128004B
:101C000000966A4402F0C6FF0028D2DC114806F0B4
:101C1000A9FE2660D0E7FFF723FFF9236A465B00A1
:101C20009381F13B217803AA28000096FF3B02F044
:101C300049FF6A46084B21789381280002230096C9
:101C400003AA02F03FFFB7E7B03800207C2600204F
:101C50007427051060270510F4270000F0B5334CF9
:101C60000500216887B000295EDD0F22F723304F81
:101C70006A441370F63B3800C9B2009302F022FFA9
:101C8000002304AE2178320038000093083302F0BC
:101C900081FF737830781B0100031843B378F47820
:101CA0001B091843337924031B011C437379F688FD
:101CB0001B091C43FFF70AFE1E4B1F491A882311FC
:101CC0009B1AE4105200A21A00240C5F5B43544399
:101CD0001A4A1B130021525E76BA5343E4129B1337
:101CE000E418B6B2164B070030001C60FFF764FE24
:101CF0000600A00004198034201204F091FF002295
:101D0000104B04F0F6FE05F017F86864380006F092
:101D100075FBA864300004F083FF00220A4B04F036
:101D200006FF05F009F8E86407B0F0BDB038002000
:101D30007C260020BA5B0020BC5B0020BE5B00203C
:101D4000705B0020000059400000503F0023F0B5B8
:101D500099B00E93CB780700CA1C472B00D0A2E0A5
:101D60005078472800D09EE09078412800D09AE033
:101D700002AA9446243B6344079310AB06930FAB2F
:101D800005930EAB049314AB039322236344029395
:101D90000DAB019321236344C81D0093BF490CABD5
:101DA0000BAA43F00BFE00287BDD0B9806F048FBE6
:101DB000BB493860040004F027FC64210600B860C9
:101DC000200004F021FC642104F01EFC20000D0022
:101DD000F960642104F018FC0A0039613101891BA3
:101DE0000B01591A2B015B1B9B000901C9188918AB
:101DF0009822BB587960002B00D149E1013BBB50D0
:101E0000FC690E9BFB627B6AA34200DA7C623D6A3E
:101E1000A54200DD39E1002D00D136E1FE21BE6B87
:101E20008905301C06F0CCFA002807D09635A5426B
:101E300004DA8823FA5C002A00D182E19949301C37
:101E400006F0B0FA002815D07B6AF9691A00313221
:101E50008A420FDB94493A6A8C466244934209DD18
:101E60008823FA5C012A05D101329048FA5406F021
:101E700079FDBE6B301C06F01BFB8D4A8D4B04F0C8
:101E8000AFFE00280DD08C4BFA699A4209DC8822FB
:101E9000BB5C023B012B04D804238848BB5406F0EA
:101EA00061FD19B0F0BD522B1DD0472B5FD0562BD2
:101EB00000D1BDE0542B00D03FE15378582B00D027
:101EC0003BE19378542B00D037E1C81D3C227C497C
:101ED00044F0C8FD0028E4D17A4806F043FD7A4872
:101EE00002F046F9DDE750784D28DED194782000E5
:101EF0004338432CD9D1382202AB9B1818701032CA
:101F000002AB9B1818700FAB069314AB02AA059393
:101F100010AB944604932223634403930DAB0293C6
:101F20002123634401930CAB00932323C81D634416
:101F300066490BAA43F042FD0628B2DD10A841F025
:101F400063FB040014A80D0041F05EFB08900991AA
:101F50002900200004F0F0FE06F072FA38630898B9
:101F6000099904F0E9FE06F06BFA786399E7507876
:101F7000532826D19078562823D1554806F0F2FCF4
:101F800014A80200534B0D2732CB32C21B6820210C
:101F90001360514B047802269E5F504A18ADA6424A
:101FA0000AD093691942FCD101301460A84200D1D3
:101FB00077E70478A642F4D193691942FCD11760FF
:101FC000EFE7472B00D072E750784C2800D18BE028
:101FD000472B00D06BE75078532800D067E7907804
:101FE000412800D063E73E4806F0BCFC14A802007C
:101FF000384B0D27203332CB32C21B6820211360AF
:10200000354B047802269E5F344A18ADA6420AD0AA
:1020100093691942FCD101301460854200D140E738
:102020000478A642F4D193691942FCD11760EFE716
:102030005078542800D03DE79078472800D039E701
:10204000284806F08FFC14A80200224B0D273033DD
:1020500032CB32C21B68202113601F4B047802264A
:102060009E5F1E4A18ADA6420AD093691942FCD160
:1020700001301460854200D113E70478A642F4D100
:1020800093691942FCD11760EFE725003C62C5E671
:102090000E9B032B5CDCFC69B4E6C0468827051068
:1020A00010270000000020C1CF070000BC2705104A
:1020B0009A9999999999B9BF34080000D0270510C9
:1020C000482805108828051088130000E02705100F
:1020D0000828051008290510885B002000800340AF
:1020E000282805103828051090784C2800D06FE774
:1020F000414806F037FC14A80200404B0D2710336E
:1021000032CB32C21B68202113603D4B047802267B
:102110009E5F3C4A18ADA6420AD093691942FCD191
:1021200001301460A84200D1BBE60478A642F4D185
:1021300093691942FCD11760EFE7334806F066FD5A
:10214000AFE601323148FA5406F00CFCBE6B75E67E
:102150002F490C9806F0DBF8041C06F0E5F9051C85
:10216000201C06F0A5F900222A4B05F04DFB04F0D7
:10217000E3FD294906F0DFF8284906F0C8F8291CD4
:1021800006F0C2F8212202AB9B181B78B861532BD2
:1021900004D180231B069C466044B8611C490D98FD
:1021A00006F0B5F8041C06F0BFF9051C201C06F06B
:1021B0007FF90022174B05F027FB04F0BDFD1649FF
:1021C00006F0B9F8154906F0A2F8291C06F09CF8AB
:1021D000222202AB9B181B787861572B04D18023F5
:1021E0001B069C4660447861109806F029F90E9B06
:1021F0000400F86106E6C0461828051008290510F5
:10220000885B002000800340B0280510A827051037
:102210000000C8420000F03F0000A0400000404025
:10222000F0B58DB001AD2A001E4B0100403351CBFB
:1022300051C251CB51C251CB51C211CB11C26B46CD
:102240002E27981D2C000022002329726F44067847
:1022500001309B19DBB29A18D2B2B842F7D12A20CA
:102260002B542B23EA54104B2C350227DF5F0D2310
:102270002E009C460D4A0A382578AF420BD0936950
:102280001842FCD101341560A642F5D1084806F089
:10229000BDFC0DB0F0BD93691842FCD163461360DC
:1022A000EDE7C04608290510885B00200080034048
:1022B000CC280510962110B58901064802F02EFDA4
:1022C0000221042001F0A4F80221052001F0A0F869
:1022D00010BDC04600800340F0B54E464546DE4680
:1022E0005746E0B5584D8146AB6983B0DB0614D440
:1022F000564B10249846564F2600AB691E401C4290
:10230000FAD12B68DBB2242B0ED03A685A2A10DDA2
:1023100000233B60AB691C42EED003B0F0BCBB466F
:10232000B246A946A046F0BD484A1370233B3B6025
:10233000F0E7002AEEDD0D2BECD04046511C396051
:1023400083540A2BE6D146544146424806F05EFCCF
:102350003868031F9C46012B4BDD123BED2B62D8E6
:10236000434642465B78927853404246D278534087
:10237000019308235B429A46824453469B089B463E
:10238000434659461A1D83460023080002CA0136F7
:102390004B40B042FAD8019E1A045E40120E5640DD
:1023A0001A02120E56401B0E5E40514603239943FB
:1023B000CBB21A1D5846F6B2D2B28A450ED041466B
:1023C0008A5C56405A1DD2B2624507DA8A5C0633EF
:1023D000DBB256409C4501DDCB5C5E4040440300CF
:1023E000043B1B7882462A2B05D01B4806F0BAFA1C
:1023F0008EE70026F2E70300033B1B7830099B467B
:10240000FEF7C0FA8345F0D15046023803780F201A
:1024100030409A46FEF7B6FA8245E6D14146484634
:10242000FFF794FC74E7434661465A1C8446002635
:102430000123080011780133DBB24E4001328342A0
:10244000F8DB6046CAE7C0460080034050500020D9
:10245000B4500020FC280510EC280510FA22C169B0
:10246000030010B59200914209DC03200321A4224D
:102470009C588C4202D09950FFF7D2FE10BD062026
:102480000621F4E710B51F211C2000F0C1FF002237
:1024900000211C2000F0D4FF00211C2000F0F8FFD8
:1024A00010BDC04610B51F211C2000F0B1FF002256
:1024B00000211C2000F0C4FF00211C2000F0E8FFD8
:1024C00010BDC0468023114A9B01116810B54B40D6
:1024D000E021C9010B400E4904000B6004210D4BA3
:1024E0001960FC3113680B42FCD00023506863670D
:1024F0000004A367000C05F081FF074905F01BFFEE
:10250000E621890505F017FFE06710BD00C0044013
:1025100000D0044000E0044033335340F0B5DE46C1
:1025200057464E464546E0B589B00190032800D194
:10253000E3E0022800D1F0E0072800D1F4E006280B
:1025400000D1E2E004AB9C465F1DDC1DD0231B06DE
:1025500099468023DB039846774B0E269B466644BC
:10256000019B3B70C046C046C0464B4642469A61FE
:10257000C046C046C046032304AA04A993716F480D
:10258000023B220006314FF0EFFD2378F32B23D0DE
:102590000A2001F0EDFD012504A90123220067486E
:1025A00006314FF0E1FD2378F32B15D00A200135D9
:1025B00001F0DEFD3C2DEFD12378312B08D05846B9
:1025C00006F0D0F9FA20C00001F0D2FD0025E3E7C3
:1025D0005B4806F0C7F9F5E70A2001F0C9FD0122C2
:1025E000390056484FF0B0FDC046C046C0464B4685
:1025F00042465A61C046C046C0460A2001F0B8FDB6
:10260000504806F0AFF99620800001F0B1FDC046B9
:10261000C046C0464B4642469A61C046C046C04688
:10262000132304AA04A993714448123B22000631E3
:102630004FF09AFD2378F32B25D00A2001F098FD66
:102640003D4B01259A4604A9012322003B4806314F
:102650004FF08AFD2378F32B15D00A20013501F0C5
:1026600087FD3C2DEFD12378312B08D0504606F062
:1026700079F9FA20C00001F07BFD0025E3E730483E
:1026800006F070F9F5E70A2001F072FD06AD2A00A8
:102690000123132129484FF0D7FC01350A200021DE
:1026A00001F054FDB542F2D1C046C046C0464B468B
:1026B00042465A61C046C046C0460A2001F058FD55
:1026C0000821029A04AB5B189B5C039A934206D0E4
:1026D0001D4806F047F91D4801F04AFD40E71C4837
:1026E00006F040F90A2001F043FD012009B0F0BCDA
:1026F000BB46B246A946A046F0BD164806F032F9E0
:1027000001230393002302931CE7134806F02AF9E0
:10271000002303930133029314E7104806F022F9D3
:102720000023039302930DE70D4806F01BF90123E4
:102730000393029306E7C0469829051000C00340A2
:1027400074290510182A05105C2A0510881300004A
:10275000442A0510C4290510002A0510D82905109F
:10276000EC2905107F225242F8B557469246C30F16
:10277000DE469B4643001B0E40024E4645469A44A9
:10278000430A98460123E0B5FE2716269946BF0561
:102790003000173804F044FA0B0080210200C9050C
:1027A000002004F0A7FE040040464B46F0400D0018
:1027B000184004F035FA22002B0004F0B8F90400A8
:1027C000381C0D0005F074FE02000B0020002900EB
:1027D00004F086F904F0B0FA071C013ED8D25B463B
:1027E000002B0DD05346124C002B0ED1381C211C4F
:1027F00005F0A1FDF0BCBB46B246A946A046F8BD17
:10280000FE245346A405002BF0D0504604F008FAED
:102810000B0080210200C905002004F06BFE04F0CB
:102820008BFA011C201C05F086FD041CDEE7C04667
:10283000000080BFF0B5C646804600B5454CCB6869
:102840008A680969A544009116A8434903F06AFE05
:102850004746444616AB414E1D18303728002288A3
:10286000310003F05FFE02342D18BC42F6D147461A
:10287000343728002278310003F054FE01342D183B
:10288000BC42F6D14346586B05F012FE42465A232D
:10289000D35A060011935823D35A0F00109356238E
:1028A000D35A0F935423D35A0E935223D35A0D93D2
:1028B0005023D35A0C93D06C05F0FAFD43460A908E
:1028C0000B91986C05F0F4FD434608900991586C03
:1028D00005F0EEFD434606900791186C05F0E8FD03
:1028E000434604900591D86B05F0E2FD4346029003
:1028F0000391986B05F0DCFD3200009001913B00E4
:102900001749280003F00EFEFA21164A4900136801
:10291000013313608B4215DC134B1A68134912A85C
:1029200003F000FE1248FEF729F812A916A8FEF7D8
:1029300037FF1048FEF722F896239B009D4480BC89
:10294000B846F0BD00231360074B1A6801321A60C5
:10295000E4E7C046A8FDFFFF942A0510A42A05104D
:10296000A82A0510B8380020B4380020E02A051045
:10297000F02A0510F0220510F0B53F4C0320A544C5
:10298000FFF7CCFD0720FFF7C9FDC046C046C04693
:10299000D02380221B06D2039A61C046C046C0469F
:1029A0003C236A462AAE137069463B3B32003348EB
:1029B0004FF0DAFB3378F32B23D001240A2001F007
:1029C000D7FB2F4D0123320069462C484FF0CCFB3A
:1029D0003378F32B15D00A20013401F0C9FB3C2CCD
:1029E000F0D13378312B08D0280005F0BBFFFA2056
:1029F000C00001F0BDFB0024E4E7224805F0B2FF6F
:102A0000F5E76C460A2001F0B3FB25002A000123FC
:102A10003C211A484FF018FB01350A20002101F033
:102A200095FBAE42F2D1C046C046C046D0238022BC
:102A30001B06D2035A61C046C046C04635000A2074
:102A400001F096FB104F280022783900013403F082
:102A500069FD0235A642F6D1032228000B4905F094
:102A600009FE30000A49FEF79BFE0A4806F0CEF840
:102A7000AB239B009D44F0BD54FDFFFF00C003400D
:102A80009829051074290510102B0510182B051016
:102A9000382B05101C2B05108723F0B5CE46814638
:102AA00096484746026880B55340CF221A4080239B
:102AB0005B010343AFB01A60C046C046C046D02396
:102AC00080221B06D2039A61C046C046C04630230E
:102AD0006A4617AC137101A92F3B22004FF044FB4B
:102AE0002378F32B23D001250A2001F041FB844FEA
:102AF00001232200814801A94FF036FB2378F32BF4
:102B000015D00A20013501F033FB3C2DF0D123789C
:102B1000312B08D0380005F025FFFA20C00001F065
:102B200027FB0025E4E7774805F01CFFF5E70A20BE
:102B300001F01EFB5A2301AD6B4498462F003A006A
:102B4000012330216D484FF07FFA01370A20002120
:102B500001F0FCFA4745F2D1C046C046C046D0233A
:102B600080221B06D2035A61C046C046C0460A20D6
:102B700001F0FEFA6A46542304321700D35A1100BA
:102B80009C460122604B6148543718E05B081A42AA
:102B90001ED15B081A4220D15B081A4222D15B0881
:102BA0001A4224D15B081A4226D15B081A4228D166
:102BB0005B081A422AD101315B08B9422CD00E7849
:102BC00073401A42E2D05B0843409BB21A42E0D005
:102BD0005B0843409BB21A42DED05B0843409BB285
:102BE0001A42DCD05B0843409BB21A42DAD05B0841
:102BF00043409BB21A42D8D05B0843409BB21A4272
:102C0000D6D05B0843409BB21A42D4D05B08434005
:102C100001319BB2B942D2D121000DA89C4569D1A6
:102C20006A782B781202134302350B8002318542F9
:102C3000F6D10D9B23936B46188F05F0DAFB3449D0
:102C400005F065FB6B466063588F05F0D2FB304999
:102C500005F05DFB6B46A063988F05F0CAFB05F09D
:102C600027FC00222B4B03F044FF00222A4B03F0E9
:102C70005EFF0022294B03F02AFF04F05DF86B464B
:102C8000E063D88F05F0B5FB05F012FC0022214B64
:102C900003F02FFF0022224B03F049FF04F04CF811
:102CA00020641098FFF75EFD60641198FFF75AFDED
:102CB000A0641298FFF756FD4A46139BE0642B93DD
:102CC000149B90662C93159B49462D93E36B200033
:102CD0009365236CD365636C1366A36C5366636B57
:102CE000D366A36B1367FFF7A5FD2FB0C0BCB94631
:102CF000B046F0BD0B4805F035FEF6E700C00340D6
:102D00009829051074290510FFFF000001A0FFFF9E
:102D10000000C842E0FFEF4000E065400080464010
:102D200000005940482B051010B502480FF048FF2D
:102D300010BDC046485000208023024A9B00034338
:102D4000D362704700800540024B1A68024B5A60FC
:102D50007047C046345B002000800540184B0200DD
:102D6000184810B5D8618020174BC0051860174C63
:102D70001748046000290AD0E021164BC9041960E5
:102D8000002A09D18022134B12061A6010BDE021DF
:102D9000C9041960002AF5D053019B1A98008023BA
:102DA000801800015B04984200D30B4880220B4B33
:102DB000D2051860024B5860064B1A60E6E7C04621
:102DC000008005402131B76A00B00540FCFF0100DA
:102DD0000820014000A00540FFFFFF00345B0020F9
:102DE00010B5140080221B4BD2051A6000281AD09F
:102DF0000123194A1843194BDA61194A42401A62F1
:102E0000596298628022134BD2051A601549164AFE
:102E10001160E022D2041A60002C07D18022134BEB
:102E200012061A6010BD0D4BD861EBE763011B1B46
:102E30009A008023121912015B049A4200D30C4AB3
:102E40000C4B1A60054B5A608022084BD2051A6061
:102E5000E8E7C04600B00540D3C007B00080054099
:102E60002D3FF84FFCFF01000820014000A0054065
:102E7000FFFFFF00345B0020024B18688007C00F83
:102E80007047C04600C0064070B5EFF3108C72B6B4
:102E90000D4D2B68002BFCD0BFF35F8F0724CB08B0
:102EA000C618C05C01230C40A3401C000440034230
:102EB00007D103433370BFF35F8F2C608CF310880E
:102EC00070BD100002F052F82C0100D0F8B5474652
:102ED000CE46884680B5EFF3108C72B6214D2C6833
:102EE000002CFCD0BFF35F8F9A422CD8D408072760
:102EF000055D061901241740BC402C421FD0072154
:102F00000127894609E0D408055D06194C463900B9
:102F10001440A1400C00294211D001329342F2D258
:102F200001204042BFF35F8F00220E4B1A608CF3EA
:102F3000108800280FDBC0BCB946B046F8BD2C4352
:102F400010003470EEE7BFF35F8F00232B608CF32B
:102F50001088012040424346002BECD0089802F034
:102F600005F8C0462C0100D00021044B044ABFF3F1
:102F70005F8F02C39342FAD17047C046000100D070
:102F8000800100D0044A1078431CDBB2172B00D913
:102F9000102313707047C0460826002000B5054B6B
:102FA00083B00100009318221F230348FFF78EFF10
:102FB00003B000BD742B051080560020F8B55746AD
:102FC0008246384B454653445A425341802292022E
:102FD0009446DE464E465B421B0C334A1B04634458
:102FE000E0B51360314A0D003149136018008A685A
:102FF00090438146FAD1062000F004FA80468020F2
:103000000221EF0D6E02AB0DAA02400005E09045D3
:1030100007D392197B4181423FD00C000231002B33
:10302000F5D0802627023F1B760002E03F1B012ED1
:1030300035D039004046B346013E03F00DFB8542D2
:10304000F4D2594633029946614353464A461C61BD
:103050001B6850465340FF22120213408022520147
:1030600002431360036807205840CF2303401360D6
:103070005246802303209B0124321A43106052469B
:10308000101D184302230360404603F0E5FAF0BC2C
:10309000BB46B246A946A046F8BD0C00C1E72100D8
:1030A000D3E7C0460040FCBF00E0004000F0004015
:1030B00000C00040F0B54F464646D6468146C0B5F2
:1030C00006200D0000F09EF9804680200221EF0DC1
:1030D0006E02AB0DAA02400005E0904507D392199D
:1030E0007B4181422AD00C000231002BF5D0802692
:1030F00027023F1B760002E03F1B012E20D0390043
:103100004046B246013E03F0A7FAA842F4D9514620
:10311000614336024B461C611B6880205E40FF23E2
:103120001B021E404B46400118430660404603F018
:1031300093FAE0BCBA46B146A846F0BD0C00D6E70B
:1031400021000026E6E7C04630B50C2083B0FFF72B
:10315000F3FDFFF791FE00280ED0944B944A1A60BD
:103160005A609A60DA601A615A619A61DA611A6289
:10317000904A5A6203B030BD8F4CA06701F002FC48
:1031800001228E4B1A60636C012BFCD103228C4B05
:103190001A60894A936B012BFCD101330121894AC2
:1031A00089480093043301F095FB0523874A009377
:1031B0000121874801F08EFB864B5A68FF2A02D80E
:1031C000802252005A608022784C7D4B2169120186
:1031D000804D1A60002905D0606903F03DFA013086
:1031E0000138FDD1E0217B4B02201A68114080227A
:1031F00052012A43116019684840032101401160BF
:1032000004219A681142FCD08022802192012A4335
:1032100009011160802252005A606F4B23616F4B8D
:103220005968FF2900D85A600321644A6B4B11602A
:1032300002399A681142FCD0E0201A6810408022BE
:1032400052011A43106018684840032101400220CF
:10325000116062498A681042FCD0802292011343B7
:10326000802212011A6080225D4B52004A60636125
:103270005C4B5968FF2900D85A6080225A4BE1699B
:103280001201584D1A60002905D0606903F0E4F975
:1032900001300138FDD1E02252490B681A408023E9
:1032A0005B012B431A60802380229B012B43120178
:1032B0001A6080223E4B52004A60E3614B4B5968D2
:1032C000FF2900D85A608022494B216A1201474DDC
:1032D0001A60002905D0606903F0BEF90130013899
:1032E000FDD1E02241490B681A4080235B012B434A
:1032F0001A60802380229B012B4312011A608023D5
:1033000080225B004B602A4BD2022362394B596802
:10331000914200D25A608022374B616A1201354DCA
:103320001A60002905D0606903F096F90130013870
:10333000FDD1E0222F490B681A4080235B012B430B
:103340001A60802380229B012B4312011A60802384
:10335000DB024B60174B6362284B5A68FF2A02D886
:10336000802252005A608022254BA1691201234D10
:103370001A60002905D0606903F06EF90130013848
:10338000FDD1E0221D490B681A4080235B012B43CD
:103390001A60802380229B012B4312011A60802334
:1033A0005B004B600E4BA361E4E6C04684560020F0
:1033B000006CDC021BB70000008000403CB0004005
:1033C00030B00040002F685900800240008C8647D2
:1033D00000C0024030800040001BB7003C8000402D
:1033E000405973075480004054B000406080004052
:1033F00060B000406C8000406CB0004048800040ED
:1034000048B00040014B8000C058704784560020EF
:10341000094A830094464022634410B51C68C000EA
:103420006240C02414408022520113431C60034BAD
:103430009C466044416010BD04C001400040014012
:103440000A4B80009C4604236044002901D00C23D1
:103450000821002A00D10B00026853400C221A40B8
:1034600080235B01184302607047C04604C00140DE
:10347000064B80009C466044036809015940302394
:10348000194080235B0118430160704704C001406C
:10349000084B80009C466044002905D080239B0196
:1034A0001843402303607047C0239B011843402307
:1034B0000360F8E704C001400123D02283401206D4
:1034C00093629361094A83009446402263441968D9
:1034D000C0004A40C02111408022520113431960AC
:1034E000034B9C46052360444360704704C0014081
:1034F0000040014001238340002904D0034A1360A7
:10350000034A13607047034A1360FBE780E200E060
:1035100000E100E080E100E001228240034B1B68F3
:1035200013405A1E9341D8B27047C04600E100E0F4
:1035300001238340014A13607047C04600E200E067
:10354000084B10309B688000C358002B07D0064AF8
:1035500000209B1A2F229A424041C0B2704700209F
:10356000FCE7C04600ED00E00C260020024B1030C6
:103570009B688000C058704700ED00E070B50D00FA
:10358000EFF3108672B60F4A1368002BFCD0BFF31E
:103590005F8F0D4B10309B6884001B590B4A934280
:1035A00003D09D4201D001F0F9FC074B9B681D51EF
:1035B000BFF35F8FBFF35F8F0022024B1A6086F369
:1035C000108870BD240100D000ED00E0CD01001096
:1035D000F0B557464E46DE464546E0B585B0060096
:1035E00002911700EFF3108B72B6674A1368002B35
:1035F000FCD0BFF35F8F0025644B5D579A46002DCA
:1036000000DAA4E06B00624C03935B199B009846C0
:10361000A146C1444B4652469B79103613705D4B10
:10362000B2009B68019299580B1B2F2B34D95A4B2F
:10363000994200D0A4E0039B584A9C46584B6544ED
:10364000AD006353434602336519E418554B01211D
:10365000043B1B1B1B055B0D13436B80524BEF712F
:10366000AB80FF23AB71029BAB604B460B43190051
:10367000484B019A9B689950BFF35F8FBFF35F8FF0
:103680000022414B1A608BF3108805B0F0BCBB469A
:10369000B246A946A046F0BD01200A008243D37974
:1036A000BB422FD845464E46130040491B1B5B4189
:1036B0005943090D3A4B63533A4B02356519043BA4
:1036C0005B1B1B05354D5B0D2B4373800426B446F5
:1036D000E0444444131F1B1B4C46A17102991B0577
:1036E000A16049465B0D2B43A380314BE771014339
:1036F0001360BDE75800C01880002018C679BE428C
:103700002BD902000623D356002BF3DA101D824674
:103710002848804604267642B446E14450464E4648
:10372000361A3005400D824656461C4895710643B0
:103730009680039A944665441D4AAD006419226040
:103740004246A371029BA280E771A36090E701F05B
:1037500025FC002553465D5754E7101D824690888E
:103760004005001584464046D4446646043020187F
:10377000301AE0260005400D360230438046C9E786
:1037800001F00CFC57E7C046240100D0CD5B0020BF
:103790000C26002000ED00E0CD01001000E0FFFF4E
:1037A00000A1FFFF3C26002001BDFFFFAAAA0000E8
:1037B0000148804701BD0000F0B5DE4657464E4641
:1037C0004546E0B50C0083B0EFF3108972B6584A55
:1037D0001368002BFCD0BFF35F8F564B9A68030031
:1037E00010339F00D559544A9046954232D0A54295
:1037F00043D0524EAA1B2F2A2CD801228240924637
:1038000051464F4A12681140019151464D4A11608C
:10381000BFF35F8FEFF305829346002A33D1012374
:103820002A009A4393689C4208D177E04B005B18CA
:103830009B00F3189968A1422AD01A00062151561C
:103840000029F3DA019B002B19D052463E4B1A6037
:103850003B4B1A60374B9B68DD51BFF35F8FBFF363
:103860005F8F0022324B1A6089F3108803B0F0BCDE
:10387000BB46B246A946A046F0BD1500EAE752464F
:10388000304B1A60E6E79342C9D001F087FBC6E7E8
:1038900006215956002921DB4A00501880003418AF
:1038A0008046A0689860E079D8710620205698710B
:1038B000002824DBA488F01A640524154444001968
:1038C000E0240005400D24022043988052181F4B2D
:1038D0009200B6181A781970B271B3E759460029E8
:1038E0000FD1FF3191711A49918018490A789A7164
:1038F000184A9B1B5B415A43120D0A70A2E71648F7
:10390000E3E7164A1649D21A083A5002400D01431D
:103910009980144952080A43DA8093E706215156E8
:1039200013000029B8DA5A46002AEAD14546DCE7F6
:10393000240100D000ED00E0CD0100100C26002095
:1039400000E100E080E100E080E200E0CD5B0020EB
:1039500001BDFFFFAAAA000001BD0000462600200D
:1039600000F0FFFF00F8FFFF70B5EFF305810124C1
:103970000443EFF3108C72B6214A1368002BFCD07D
:10398000BFF35F8F1F4B05001F4AED1A6D416A435D
:10399000120D1E4D8900AE6852B27658A6421CD058
:1039A0000621595691421CD012215956914222D0DB
:1039B0001E215956914220D02A2159560324914262
:1039C00010D0134B19781A708171BFF35F8F0022EA
:1039D0000B4B1A608CF3108870BDAB680D4C5C50BB
:1039E000EFE700246100091989005B18FF21997134
:1039F00009499980E5E70124F4E70224F2E7C0468B
:103A0000240100D00C260020AAAA000000ED00E04E
:103A1000CD5B0020CD01001001BDFFFF054B064A24
:103A20001360064A136053609360D360136153615F
:103A3000936170478080808000E400E004E400E04F
:103A400000B5074B83B00100009300220523054811
:103A5000FFF73CFA002801DB1F23181A03B000BD52
:103A6000902B0510D25B002070B504000E001500ED
:103A7000FFF788FA0100200000F006F8A680E58034
:103A8000BFF35F8F70BDC046024B9C466144890006
:103A9000016070474000003410B50400FFF772FA6F
:103AA00001002000FFF7F0FFFF232371BFF35F8FBA
:103AB00010BDC04610B50400FFF764FA01002000F5
:103AC000FFF7E2FFFF23A380BFF35F8F10BDC04667
:103AD00010B504000120FFF761FA044B9C466044D6
:103AE00080002060BFF35F8F10BDC04640000034EF
:103AF000034B9C46614489000160BFF35F8F7047B0
:103B00004000003483680B4810B584466144624429
:103B1000090112019A18591854684B6801209C42F7
:103B200001D802D00020C0B210BD12680B689A42C2
:103B3000F9D8F7E7FFFFFF0F0A4B1968EFF3108082
:103B400072B60A68002AFCD0BFF35F8F1B68BFF310
:103B50005F8F00221A6080F3108840BF0020002190
:103B60007047C046645B0020F8B557464E46454650
:103B7000DE46E0B599460CAB1C780DAB1B78060011
:103B800090469A460768002C11D1BC7B002C42D08D
:103B900065003B682D19033D59194B78BB73002B09
:103BA00000D1FB7300238B704B700B7004E0650039
:103BB0003B682D19033D5919B2682A4B9446424679
:103BC000E3181B0163441A604A465A600A9A9A60D5
:103BD0000B9ADA6000238B704B700B707B7B9B46DB
:103BE000002B2BD022005946B8687B6898473A686A
:103BF000002816D05B4658465B005B445519033BD2
:103C0000A870D118D35C002B00D06B705B460C7091
:103C10007B73A34513D0F0BCBB46B246A946A04671
:103C2000F8BD5B465B005B44033BD3189C705119A5
:103C3000525D002A00D05A705B460B707C7342467E
:103C40004B46307D00F0DEFB051E06D05346002BB0
:103C500003D12100306800F0FFFD0E9B002BDAD06D
:103C60001D70D8E7FFFFFF0FF0B5DE4657464E4602
:103C700045460023E0B58BB00893664B8200D458CC
:103C800000239B46099000F033FB626806000F009A
:103C9000EFF3108572B61368002BFCD0BFF35F8F73
:103CA00023689C465B7B9946002B68D0A2685A4BE0
:103CB00090464B441B01984443461A685B681000C9
:103CC0001900801BB941002963DD099800F09AFBB7
:103CD00000230022984600230692079300239A4669
:103CE0006368BFF35F8F5A461A6085F310885346A6
:103CF000002B08D10028C6D10BB0F0BCBB46B246A1
:103D0000A946A046F0BD089B414618024B46184301
:103D1000D047626806000F00EFF3108572B6136893
:103D2000002BFCD0BFF35F8F002F4FDB33003B43F2
:103D300002D02369002B60D12368D97B002907D0EA
:103D40004A00521819688C4649466244033A517039
:103D50009A7B002A01D14A469A734A46DA734B4647
:103D6000E168013BCA5C0132CA545B462361636867
:103D7000BFF35F8F5A461A6085F3108883E70023EC
:103D800000229846002306920793002300209A46BB
:103D9000A6E7002901D1002897D10021604600F054
:103DA000D9FC43461A685B680692079343469B68B2
:103DB0009A464346DB689846E3684B44013B1B78D0
:103DC00008931B0203432361002089E72369002B2A
:103DD000B2D0069A079B921BBB41002B15DB5946BC
:103DE00004910121039149460291414601915146B6
:103DF00020000091FFF7B8FEB7E700F079FA320033
:103E00003B0012184B41002BE9DA0122034B5242CE
:103E1000E5E7C046445B0020FFFFFF0FFFFFFF7F89
:103E200010B5144C6368002B04D00A211248FFF728
:103E30002BFE10BD2300114A1021206800F0A4FBC6
:103E4000032000F049FA032000F04CFB03200C494A
:103E500000F092FAFFF796F80A4B9C46032323756D
:103E6000D0231B061B6860446375074B80006060AD
:103E7000DC60DAE754260020645B0020053B00107C
:103E8000693C001040000034445B0020004870474B
:103E900054260020F0B557464E464546DE46E0B56E
:103EA00085B0019310AB1B780600039300239A465C
:103EB000984600927268EFF3108972B61368002B6F
:103EC000FCD0BFF35F8F3568AC7B002C49D0670016
:103ED0002B683F19033FDB195A78AA73002A00D1D7
:103EE000EA73B168484A8C4600980199A2181201F9
:103EF0006244106051600E9991600F99D160424602
:103F00009A705A701A706B7B9B46002B45D022002A
:103F10001900A8686B6898472A68002830D05B466B
:103F200058465B005B44D719033BB870D118D35C8B
:103F3000002B00D07B705B460C706B735C452DD002
:103F4000F3681B19013B18787368BFF35F8F424613
:103F50001A6089F310885346002B2CD100022043AD
:103F600007E07368BFF35F8F1C6089F3108801203E
:103F7000404205B0F0BCBB46B246A946A046F0BDE3
:103F80005B465B005B44033BD3189C70D119D25D48
:103F9000002A00D05A705B460B706C73307D009A1B
:103FA000019B00F02FFA82460028C9D0210030681A
:103FB00000F052FCC4E7039B002B23D00E9B002093
:103FC0000F999847030004000D000B431AD00029F5
:103FD0000ADA009A019B121BAB4100920193002B5D
:103FE0000ADB039B9A4665E700F082F924184D41ED
:103FF00000940195002DF4DA0123044C5B420093F8
:104000000194EEE70020B4E7FFFFFF0FFFFFFF7F03
:1040100070B542680400EFF3108572B61368002B88
:10402000FCD0BFF35F8F2068CEB2437BB3420AD08F
:10403000FF230B405A00D318026894466344033BA5
:104040009B78002B13D0E268FF2394460B40634417
:10405000013B0A0A1978D2B291420ED0002063685F
:10406000BFF35F8F00221A6085F3108870BD22694C
:104070008A42F3D100202361F1E7310000F0ECFB2C
:10408000EDE7C046407D7047F0B504000D00062600
:104090007642F717C64636196F4100B584B08F4295
:1040A00014D811D000F024F932003B00121A8B41D1
:1040B000002B15DC002B3ED02000290000F04CF92D
:1040C00004B080BCB846F0BD8642EBD9002600277C
:1040D00000F00EF932003B00121A8B41002BE9DD93
:1040E000002302930193154B3200009314483B00C8
:1040F000FFF7D0FE0028DFDB00239846BC46114ABC
:10410000114F7B6A9C4504D8B96A8E42D4D99C452C
:10411000D2D11168EFF3108072B60B68002BFCD07F
:10412000BFF35F8F1368BFF35F8F4146196080F361
:10413000108820BFE5E7002ABED0D1E7393B001048
:1041400054260020645B00200040054070B5040048
:104150000D0000F0CDF800196941002902DBFFF7DE
:1041600093FF70BD012001494042F8E7FFFFFF7F48
:1041700070B5060000F0BCF8FA2204000D00002320
:1041800030000021920004F09FF8001969410029D5
:1041900002DBFFF779FF70BD012001494042F8E7DB
:1041A000FFFFFF7F70B5EFF3058305000C0084B0BF
:1041B000002B0AD0164A0020536A9C4203D8926A08
:1041C0000130AA421FD304B070BD124E0293019376
:1041D000114B0200009330000B00FFF75BFE011E45
:1041E000E8DD20BF3000FFF713FF094B0020596ABC
:1041F0008C42E8D89B6A0130AB42E4D2641A631E59
:104200009C41E0B2DFE7E41A631E9C41E0B2DAE7CA
:104210000040054054260020393B0010F0B5EFF374
:104220000582D6464F4646461000C0B51038EFF31B
:10423000108872B6214C2368002BFCD0BFF35F8F2F
:104240000123190081401E4D1F006963AA461D4DC0
:1042500029601D4D2E78AC463500C5402F402B42BD
:1042600009D1BFF35F8F276088F31088E0BCBA469E
:10427000B146A846F0BD5346144D5F6A83005D59B0
:10428000AF420ED3124A8E439B5862461670BFF35C
:104290005F8F0022226088F31088002BE6D09847B9
:1042A000E4E70C4B92009C46624413681360BFF332
:1042B0005F8F0023236088F31088D7E7280100D0A0
:1042C000004005403C700540D15B0020745B00203D
:1042D00068550020D03F054010B50100024A034850
:1042E000FEF7D2FD10BDC046B82B0510C75B0020FD
:1042F000034B596A0A00986A596A8A42FAD1704790
:104300000040054070B504000D00124A536A1900C0
:10431000966A536A8B42FAD13000190024184D4135
:10432000AB4211D80ED02B000A494A6A9A42FCD3FC
:1043300007D1084A02E0516A994202D1916AA1422A
:10434000F9D370BDA642EED9012301246442E517DA
:104350005B42E9E700400540064A536A9942FCD8AF
:1043600007D1044B02E05A6A914202D19A6A824212
:10437000F9D370470040054070B504000D00EFF31D
:10438000108672B61A4A1368002BFCD0BFF35F8FF9
:10439000002D1BD02000FFF7E9F8164981420AD012
:1043A0002000FFF7EBF801212000FFF7A3F801231D
:1043B000A340114A1360114BA400E550BFF35F8F77
:1043C00000220B4B1A6086F3108870BD0B4BA200C5
:1043D000D5500122A2400A4920000B7893430B706C
:1043E0000449FFF7E9F900212000FFF783F8E5E72A
:1043F000280100D01D42001038600540685500209B
:10440000D15B0020F0B54F46D6464646C0B5070002
:104410002F4C616A0D00A66A616AA942FAD18B42EB
:1044200008D805D00120E0BCBA46B146A846F0BD88
:10443000B242F7D9EFF3108A72B626480168002914
:10444000FCD0BFF35F8F0125BD402349204C884637
:10445000097889462943C9B28C46414660460870AE
:10446000391D1E48890065630A51B9000B50216A45
:104470000020294219D0616A0800A66A616A814257
:10448000FAD18B4219D801D1B24216D8CC451DD0F1
:104490000F4B1F201D625D6301230740BB40104A84
:1044A0001E38136043464A461A70BFF35F8F0022DE
:1044B000084B1A608AF31088B5E70020BFF35F8FBE
:1044C0000022044B1A608AF31088ACE70120ECE765
:1044D00000400540280100D0D15B0020745B002023
:1044E00080E200E0EFF3108C72B60A490B68002BF3
:1044F000FCD0BFF35F8F01238340074A0748136254
:1045000002789A430270BFF35F8F00230B608CF335
:1045100010887047280100D000400540D15B002082
:1045200070B5050014001600002915D00C00002AF3
:1045300012D080686B689847296800280ED07300F5
:104540009B196200033B1219CB18033A9C70881820
:104550008A5C002A15D10670200070BD63001B190B
:104560007200033B9219CB18033A9E7088188A5C3C
:10457000002A02D104703400EEE75A70047034004F
:10458000EAE75A700670E7E730B583600023CCB2E3
:1045900043730133047342608373C4730D00006876
:1045A000012C06D9421C0133DBB2137003329C424A
:1045B000F9D1FF2129404B00591800234018033836
:1045C000437030BDF8B5CE46474606000C0080B5B6
:1045D000002907D04D0003686D18033D5A1957781C
:1045E000002F04D12000C0BCB946B046F8BD790008
:1045F000C9190339884643445978894600215970BE
:10460000517073683A002100806898473368002829
:1046100014D042469A18947059195B5D002B00D053
:1046200053700F70270049463000FFF7CBFF390069
:1046300002003000FFF774FF0400D3E74246414612
:104640005D19AF709A185B5C002B00D06B70147012
:10465000E9E7C046F0B557464546DE464E46E0B56A
:104660000D006B0001685B19DF1E0400C85D83B09C
:104670000192CA19002850D043001B18033BCB18E5
:104680005E78B446002E1AD1019E002E42D0E67B01
:10469000002E04D073009B19CB18033B5D70A37BE5
:1046A000002B00D1A573E57300282FD10023537090
:1046B00003B0F0BCBB46B246A946A046F0BD7200AE
:1046C0006244033A89184A78904600224A7091461B
:1046D0005A70010032002000FFF722FF4346824655
:1046E000002B07D05B0021684344033BCB185A786A
:1046F000002A16D1424651462000FFF711FF2168DB
:10470000019BCA19002BC2D10028CFD043001B182F
:10471000033BCB1800219970C8E7019B002BB6D151
:10472000C4E7500080180338091848788346484683
:104730004870587041462000FFF7F2FE5946804607
:104740002000FFF73FFF414602002000FFF7E8FE90
:104750008046CFE7F0B557464546DE464E46E0B5C3
:1047600083B00191457B04006B0000685B19DF1E7C
:10477000C15DC219002952D04B005B18033BC3181E
:104780005E78B446002E1CD1019E002E44D0E67BFC
:10479000002E04D073009B19C318033B5D70A37BEC
:1047A000002B00D1A573E573002931D10023280027
:1047B0005370617303B0F0BCBB46B246A946A04635
:1047C000F0BD72006244033A80184278904600229D
:1047D000427091465A7020003200FFF7A1FE434616
:1047E0008246002B07D05B0021684344033BCB1873
:1047F0005A78002A17D1424651462000FFF790FE12
:10480000019B01002068C219002BC0D10029CDD026
:104810004B005B18033BC31800209870C6E7019B50
:10482000002BB4D1C2E7500080180338091848782B
:10483000834648464870587041462000FFF770FE96
:10484000594680462000FFF7BDFE41460200200089
:10485000FFF766FE8046CEE770B5040000292CD035
:10486000437B8B422ED00568480040180338281837
:104870008278002A21D053009B18033BEA5CEE1893
:104880008A4202D11BE0002A08D053009B18033B48
:10489000EB185A788A42F6D142785A7000230122E6
:1048A000837043702000FFF7D5FE617B020020007B
:1048B000FFF736FE6073012000E0002070BD4378F2
:1048C0003370EBE701221900FFF7C4FE607301208B
:1048D000F4E7C046F0B5C646040000B50C2090468B
:1048E0001F000E0001F0B8FE4101091A8D01691A7E
:1048F000C90009188901404601F0AEFE069B3F043D
:104900001A0323681743002B22DB1A4B1A4DE218B7
:1049100053425A4180235B019C461203174B624469
:104920001A60174B1A601100AB689943FBD1C02283
:10493000231D92011A4321232660A060136023687F
:10494000002BFCDA0823E760136080BCB846F0BD9A
:104950003F2322681340B342D7D1A3681B051B0D28
:104960008342D2D1EE22E368D2021340BB42CCD1C3
:10497000EBE7C0460040FDBF00C0004000E0004043
:1049800000F00040AA23064A1B0113602F230549AB
:10499000D360054B19605368002BFCDA7047C046A2
:1049A0000040024000B0FA0000600240F8B5DE4668
:1049B00057464E4645468346E0B505200C00FEF7B7
:1049C00021FD060060082100801901F045FE43002A
:1049D0009846804407000521404601F03DFE3B1A01
:1049E0009A46204B8146700080199C4234D81E495B
:1049F00001F032FE451C5B461C680023E36622681A
:104A00000433534006221A4080235B0123431A607B
:104A10005346E3614B462362434601204F2B03D9A3
:104A20005021404601F018FEA0232200E0508023D0
:104A3000E06F7C3245402D045B0113432D0C1D605B
:104A4000012339003000E36601F006FEF0BCBB46EE
:104A5000B246A946A046F8BD044901F0FDFD451C3B
:104A6000C9E7C0463F420F008096980040787D011C
:104A7000104A70B5821A53425A41072352429A4350
:104A80000D4B10321A600D4B0D4C1A601500A368C7
:104A90009D432B1EFAD166240268FF340571D5664A
:104AA0001460633C8833FF3CD5639563D450FFF7B3
:104AB0007DFF70BD7C26002000E0004000F000403B
:104AC00000C00040F0B557464E464546DE4690468B
:104AD0000022E0B583B01E000CAB1B7884469A46DA
:104AE0000368DA6601325960DA66002E4FDD5146FE
:104AF0004A40520201928022914632008025771E60
:104B00000020464610219046AD000024002804D124
:104B100062461479621E9441A40200229346B84270
:104B20001AD0325C22435C4622431A615A6B11420E
:104B3000FCD04A469C58002C11D1B84222D00130FA
:104B40008045E2D1634652461A7103B0F0BCBB46C1
:104B5000B246A946A046F0BD019A9346E1E75A6DD8
:104B6000012293465A6B2A42FCD01A6E5A46002AFA
:104B7000E5D0002C03D0E30701D42307E2D40220C0
:104B80004042DFE75246002AD9D1D346EAE7002067
:104B9000D8E7C046F0B54546DE4657464E469346F2
:104BA0000022E0B51D0009AB1B780400984603689D
:104BB000DA6601325960DA66002D3EDD41464A4030
:104BC0005202944680220020520091466F1E803A85
:104BD000596F1029FCD0002826D000268021B2462B
:104BE0004900B84212D0196102E0996F002913D12F
:104BF0009958596D0029F8D002204042434623714C
:104C0000F0BCBB46B246A946A046F0BD664651463A
:104C100031434E463143E6E759461B690B54013098
:104C20008542EBD02368D3E721790029D5D08026AF
:104C3000A021F600B246C900D3E70020DEE7C04657
:104C400001230121084A1360084A1360084A08003A
:104C500093689843FBD1074A11608021490013688B
:104C60000B42FCD07047C04600E0004000F000401E
:104C700000C0004000C0044030B5002589B00400E9
:104C80000922002101A8009503F0EEFC0922002171
:104C900005A8049503F0E8FC4B236A4668461370A8
:104CA00004A90D224DF0C8F91521082220006944FD
:104CB00003F0E0FC09B030BD142310B501001888E2
:104CC00004331B88984710BD162310B501001888BF
:104CD00002331B88984710BDF8B54746CE4680B5CD
:104CE0000F1E19D014239946043304000025012611
:104CF00098464B461888434621681B88984701C44C
:104D0000431E9841013540420640AF42F1D1300088
:104D1000C0BCB946B046F8BD0126F8E7F8B50400B6
:104D200006200D00FEF76EFB002844D02A4B2B49CD
:104D3000E21853425A418023DB039C469205284BDC
:104D400062441A60274B1A6010008B689843FBD1AD
:104D5000214B8021E3185A425341234A5B0049000A
:104D600099520620FEF74EFB2900C00001F074FCAA
:104D7000C30921D140270121260080256162A36259
:104D800000232C36AD0135432B600620FEF73AFB9D
:104D90003900800001F060FC6023E26A53406E221B
:104DA0001A4080235B0133431A60104B23631023A6
:104DB0002B600D3BA364F8BD0D4A934203D9002339
:104DC0000C4F0D49D8E77F221040013040089F0169
:104DD00019003F180300CFE70080FCBF00C000406F
:104DE00000E0004000F00040885B0020010300006C
:104DF000FEFF0000C0FF3F00FFFF00002C4B2D4ACC
:104E000070B51A602C4A2D4B2D491A6014008B681E
:104E10009C43FBD12B4D2C4EB54208D2013E761B54
:104E2000B60808CD984723000134B342F9D1FEF704
:104E30008BF9264A214B1A60214A9368DB43DB0138
:104E4000DD09002BF9D14022214B224C224E9A67DA
:104E50005A671A67DA66B44208D223682000002B2A
:104E600020D00834FEF726FEB442F6D31B4E1C4C6D
:104E7000C022A168300003F0FDFBA660FEF774F8C5
:104E8000FEF7CCFDFEF7CCFF164C174EB44208D20D
:104E9000013E361BB60808CC98472B0001359E42D0
:104EA000F9D170BD0834FEF7F7FDB442D5D3DDE784
:104EB00000E00040BFCDFBFEFE7F3C0000F0004064
:104EC00000C00040B0310020C0310020FFFFFF01D2
:104ED00000F0014090310020B0310020000000209F
:104EE00000ED00E0C0310020EC31002000BEFDE705
:104EF000094A03001068002805D00849C3188B42EE
:104F000007D81360704706480449C31810608B42E5
:104F1000F7D901204042F5E728570020000004207F
:104F2000D45B002000207047012040427047C046FB
:104F300010B5FFF7DBFFC04610B50C0082B01900BA
:104F4000002A0AD0064B0192009302002300054874
:104F500001F01AFB0120FFF7C9FF034B1A00F2E72B
:104F6000DC2B0510EC2B0510103905100FB400B523
:104F7000084883B003F0F6FC049B002B07D005A97A
:104F80001800019101F020FB034803F0EBFC012025
:104F9000FFF7ACFF1C2C0510083B051010B50148AD
:104FA000FFF7E4FF2C2C05109A4200D2885470477A
:104FB0007047C046F8B557464E464546DE46E0B512
:104FC00099460A9B07009A460D9B88469346150012
:104FD0000B9E9B0710D10C9B9E420DD29D1B140073
:104FE0000E005D4422004B46013431002020B847BA
:104FF000A542F7D1B0460B9E002E27D04446751926
:105000005346AA1B013E985D21004B46B847002E2F
:10501000F6D123002C0098460D9B9B070FD55B46CD
:10502000E51A0C9BAB420AD94646984622004B46ED
:10503000310020200135B8470134A845F6D82000BA
:10504000F0BCBB46B246A946A046F8BD2C00E3E73B
:10505000F0B54F464646D646C0B584B098460EAB2E
:105060001B78129F994694460D9C109B119EBA077F
:1050700025D4002E4BD19C4200D3BFE001223A4000
:1050800092461F2C00D9B8E00C9A551E302201E040
:10509000202C03D001342A55A342F9D85246002AC5
:1050A0000DD0A6420BD9202C44D00C9A551E30228C
:1050B00001E0202C3ED001342A55B442F9D1FA0641
:1050C0004DD57A053FD4002C39D10F9B102B00D140
:1050D00079E00F9B022B00D18AE030230C9A012447
:1050E00013704B46002B3FD02D230C9A13550134DF
:1050F0000C9B624600930397434602960194FFF788
:1051000059FF04B0E0BCBA46B146A846F0BD012242
:1051100015003D40AA463A422FD04A46002A02D105
:105120000C323A4200D0013E9C42BAD21F2CABD97D
:10513000202E27D92024FA06DAD57A0503D4A342F3
:105140002DD0A6422BD00F9B102B32D0022B20D07B
:10515000202CCDD030220C9B1B191A700134202C2E
:10516000C6D04B46002BBFD17B070DD43B07BFD524
:1051700020230C9A13550134BAE79C429FD21F2C6E
:1051800000D881E720249AE72B230C9A1355013489
:10519000AEE7202CACD00C9B1B1901343AE0631E07
:1051A000012C92D00F9A102A2AD0022A2FD01C004C
:1051B000D0E7BB060ED4202C9AD00C9B1A190134D0
:1051C00078231370C4E7BB060DD478230C9A01240E
:1051D0001370BFE7202C00D18AE758220C9B1B19C3
:1051E0001A700134B4E758230C9A01241370B1E704
:1051F0000C9A603301241370ACE7202400265EE78C
:10520000023CBA06E9D40C9A12191C00D8E70C9A91
:105210009246534462221A709AE7C04610B500289D
:1052200000D110BD03F052FBFBE7C0460B0010B5E8
:10523000002802D049681B68984710BDF0B5DE46CB
:1052400057464E464546E0B59BB09B46249B894653
:105250009846259B0B900C924046424619009A4670
:1052600001F0CBFC002800D0D8E001224046514696
:10527000774B524201F0BCFC002800D0CEE0012266
:1052800040465146734B524201F09CFC002800D02E
:10529000C4E0002200234046514601F093FC002860
:1052A00000D0B9E1424653460A9209938023289AD6
:1052B000DB001A400E92289A1A4201D10623269347
:1052C0000A9A099B1600134300D0C7E0289B0025CB
:1052D00000261B0500D49BE100230D93269A0D9B0D
:1052E0009A4200DC9FE1D01A431E26938023289A1D
:1052F000DB001A430023002728920D93279B0024EC
:10530000BB4200D9DC1B0223289A1A400E92289A2D
:10531000134203D07B427B415B421C400D9B002B20
:1053200007D00A9809992A00330001F0E2FB0A909D
:105330000991002200234046514601F043FC002819
:1053400005D0802000068446099961440991289A75
:10535000414B0B9D13400493269B0A9A0293099B91
:1053600003940092019349465B4628000C9A00F092
:105370008BF90400002F62D0289B220098061F237F
:10538000C0179843631C984649465B466530A8475A
:105390000D9B0025DA179C18DB0F9A465440013FFD
:1053A00001E0202D13D00AAA94461F232000634455
:1053B0000A2101355E1901F04FF9303131702000BA
:1053C0000A2101F049F926000400092EE9D8052335
:1053D0000693002304930A330393534605970B9FC8
:1053E000029312AB009342465B4649463800019552
:1053F000FFF72EFE0E9B0400002B20D00C9BC51A3D
:10540000279BAB421BD91E0022005B464946202049
:105410000135B8470134AE42F6D810E0289B424629
:105420000493279B49460393269B0B98029353466C
:10543000009201935B460C9A00F026F904002000CC
:105440001BB0F0BCBB46B246A946A046F0BDC04664
:10545000FFFFEF7FFFFFEFFFFFF7FFFF734B099F9A
:105460009C467800400D604401F0DAFB704A714BB5
:1054700001F05DFB704A714B01F032FB3B03704A57
:105480001B0B1A4304000D00300011006D4B00226D
:1054900001F01DFB6C4A6D4B01F049FB02000B0053
:1054A0002000290001F01CFB01F0D2FB0D9001F05F
:1054B000B7FB674A674B04000D0001F038FB002280
:1054C000654B01F00DFB01F0C3FB644A0600644B21
:1054D0002000290001F02BFB040030000D000F9686
:1054E00001F09EFB5F4A604B01F021FB02000B00C4
:1054F0002000290001F0EBFA02000B0006000F006B
:1055000001F015FB320004000D003B0030003900B3
:1055100001F0E6FA002210901191544B200029006E
:1055200001F0E7FA0022524B01F0DAFA02000B0018
:105530002000290001F0DDFA00224E4B01F0D0FAE4
:1055400002000B002000290001F0D3FA0D00802199
:10555000040032003B000020C90501F0B8FA020047
:105560000B002000290001F0BBFA02000B0010988C
:10557000119901F0BEFA0022314B01F0B1FA3E4B15
:105580000F9C9C4664440022230501F0D0FA0500DC
:105590000E0002000B000A98099901F013FB002885
:1055A0000AD00D9B2800013B31000D930022304BA7
:1055B00001F09FFA05000E00C6270D992B006331FC
:1055C0008F42BF4128997F420437090500D495E6F0
:1055D000334300D182E6099C284A2100284B0A98CF
:1055E00001F0FEFA002808D000222100254B0A987D
:1055F00001F0E8FA002800D070E6269B002B00D1CD
:105600007CE60E9B5A1E9341269AD31A269375E682
:10561000002304270D9371E643460A9380231B065B
:105620005344099342E6002326935FE601FCFFFF03
:10563000FB799F501344D33FB3C8608B288AC63F81
:105640000000F03F0000F83F61436F63A787D23F3F
:1056500071A379094F930A400000E03F1655B5BB8E
:10566000B16B0240EF39FAFE422EE63F00002C40BB
:105670000000244000001840FF0300002D431CEBF5
:10568000E2361A3F80842E41F0B54E46DE4657463C
:105690004546E0B597B09946209E219F229B8346C0
:1056A000984607910C923B0032003000390001F01F
:1056B000A4FA002800D0A9E1012230003900CA4B29
:1056C000524201F07FFA002800D0E1E001223000D0
:1056D0003900C64B524201F08BFA002800D0B7E0E7
:1056E000002230003900C24B01F082FA002800D0BD
:1056F00099E0002230003900BE4B01F063FA002827
:1057000000D090E0002200233000390001F05AFA66
:10571000002800D0B1E000230D93249B5B0501D449
:105720000623984608AB9C461722002430234146A6
:10573000624404E0013413550139202C01D00929B9
:10574000F8D888463000390001F082FA4346DA0082
:10575000A94B05009B181A685B680892099301F031
:105760005FFA02000B003000390001F0B0F9089A2E
:10577000099B01F0DCF90A900B9101F08DFA824649
:1057800001F04AFA02000B000A980B9901F09FF908
:1057900000229A4B0A900B9101F02AFA002800D1BE
:1057A000C0E001239C46E244504601F035FA020075
:1057B0000B000898099901F00BFA002802D0002389
:1057C0009A4601354346002B6AD008AB17269C4603
:1057D00008956644554614E001235B4243440A2180
:1057E00028009A4600F038FF0134303137193970FB
:1057F00028000A2100F030FF092D00D8D0E0D04663
:105800000500202CE8D10EAB98460323249A1340C0
:10581000012B00D196E02023249A01930392239A2E
:10582000434602921EE0249B58460493239B009615
:105830000197039343460C9A029307994B46FFF74F
:10584000FDFC17B0F0BCBB46B246A946A046F0BD71
:10585000249B5B070ED40322694B24990192039188
:1058600023990291009358464B460C9A0799FFF7EB
:10587000A1FBE6E70422634BEFE73B003200002088
:10588000002101F024F9012306000F000D9344E7E5
:10589000249B0393239B0293042301935A4BE1E738
:1058A000280001F0BDF902000B003000390001F0C2
:1058B0000EF9524B002206000F0001F083F90EABE7
:1058C000984600280AD10022300039004B4B01F0E5
:1058D0008FF9002802D1EB0700D50135202C94D098
:1058E00008AA94461723280063440A2101341E198C
:1058F00000F08AFE3031280031700A2100F084FE69
:10590000051EEBD10323249A1340012B1BD0202C1E
:1059100000D180E70D9B002B35D02D224146631C22
:105920000A5579E700220A980B99344B01F04AF99D
:10593000002800D046E75346002B51D101239C4656
:10594000E2443FE72024239B002BE0D00D9B002B5B
:1059500003D1249A0C33134202D0239B013B23939F
:10596000239BA342D3D908AB9C4617223023624421
:10597000202C00D14FE72399013413558C42C6D017
:10598000202CF8D147E7249B5B0724D4249A2300DA
:10599000120700D440E72022414601330A553BE775
:1059A0005746089D202C00D12DE72200302140468B
:1059B000002F09D00132B154202A00D123E7D3436C
:1059C0001B191B18002BF5D10EAB98462E23414610
:1059D000541C8B5482E72B224146631C0A551BE75B
:1059E000DB0700D4EEE6A9E7FFFFEFFFFFFFEF7F45
:1059F00065CDCD4165CDCDC1302E05100000E03F15
:105A0000382C05103C2C0510482C0510249B0393C2
:105A1000239B029303230193004B23E7442C05109F
:105A2000F0B5DE464E4657464546E0B59FB01C00F1
:105A3000289B91460993C94AC94B8B4608901A6026
:105A4000002900D118E2002320789A46002800D1CE
:105A50001AE226001D005C460AE02A006F1C4B4635
:105A6000089D2100A8473D0001363078002870D0FD
:105A70002528F2D110239B46083B9A46043B9846C2
:105A8000023B00219C46721C107816000300203B4C
:105A9000DBB2102B03D8B34F9B00FB589F4603008B
:105AA000303B092B32D900230A932A2868D00023DF
:105AB00098462E283ED00300683BDBB2122B1CD840
:105AC000A94A9B00D3589F46012301321943DBE7C3
:105AD000634601321943D7E7434601321943D3E7FE
